:100000000C942A000C9434000C9434000C943400AA
:100010000C9434000C9434000C9434000C94340090
:100020000C9434000C9434000C9434000C94340080
:100030000C9434000C9434000C9434000C94340070
:100040000C9434000C9434000C9434000C94340060
:100050000C94340011241FBECFE5D8E0DEBFCDBF25
:100060000E9436000C9468000C9400008FEF8ABB4D
:100070001BBA21E030E087E090E04FE956E861E00C
:10008000415050406040E1F700C00000A901082E37
:1000900002C0440F551F0A94E2F74BBB019769F762
:1000A00080E090E04FE956E861E041505040604008
:1000B000E1F700C00000A901082E02C0440F551F3F
:1000C0000A94E2F74BBB01968730910559F7D3CFDD
:0400D000F894FFCFD2
:00000001FF
