:100000000C942A000C9434000C9434000C943400AA
:100010000C9434000C9434000C9434000C94340090
:100020000C9434000C9434000C9434000C94340080
:100030000C9434000C9434000C9434000C94340070
:100040000C9434000C9434000C9434000C94340060
:100050000C94340011241FBECFE5D8E0DEBFCDBF25
:100060000E94C2010C941B020C94000060E070E03E
:1000700080E00E940101089566E070E080E00E9447
:100080005101089562E070E080E00E9451010895FE
:1000900080E090E00E94850021E030E0811102C004
:1000A00020E030E0C901089586E090E00E949000D1
:1000B00021E030E0811102C020E030E0C901089564
:1000C00082E090E00E94900021E030E0811102C0C7
:1000D00020E030E0C901089563E070E081E00E9413
:1000E000E0000895882339F0813051F483E090E0F6
:1000F0000E949B00089583E090E00E94BC00089558
:1001000083E090E00E94BC00089526B330E0A9018E
:1001100002C0559547958A95E2F7CA018170089506
:1001200020B330E0A90102C0559547958A95E2F7C2
:10013000CA01817008959BB321E030E002C0220F14
:10014000331F8A95E2F7292B2BBB089595B321E045
:1001500030E002C0220F331F8A95E2F7292B25BB1E
:10016000089592B321E030E002C0220F331F8A9538
:10017000E2F7292B22BB08959BB321E030E002C0B7
:10018000220F331F8A95E2F7209529232BBB089570
:1001900095B321E030E002C0220F331F8A95E2F7C9
:1001A0002095292325BB089592B321E030E002C0B9
:1001B000220F331F8A95E2F72095292322BB089549
:1001C000882319F0813069F017C02AB381E090E0EC
:1001D00002C0880F991F6A95E2F7809582238ABB37
:1001E00008952AB381E090E002C0880F991F6A95B4
:1001F000E2F7822B8ABB0895972F862F0E94BC00BE
:100200000895882319F0813069F017C027B381E081
:1002100090E002C0880F991F6A95E2F780958223CB
:1002200087BB089527B381E090E002C0880F991F33
:100230006A95E2F7822B87BB089527B381E090E0AF
:1002400002C0880F991F6A95E2F78095822387BBC9
:100250000895882319F0813069F017C024B381E034
:1002600090E002C0880F991F6A95E2F7809582237B
:1002700084BB089524B381E090E002C0880F991FE9
:100280006A95E2F7822B84BB089524B381E090E065
:1002900002C0880F991F6A95E2F78095822384BB7C
:1002A0000895882319F0813069F017C021B381E0E7
:1002B00090E002C0880F991F6A95E2F7809582232B
:1002C00081BB089521B381E090E002C0880F991F9F
:1002D0006A95E2F7822B81BB089521B381E090E01B
:1002E00002C0880F991F6A95E2F78095822381BB2F
:1002F000089562E070E081E00E94290167E070E00B
:1003000081E00E94290163E070E081E00E945101D8
:100310000895882339F0813051F482E090E00E9402
:10032000A600089582E090E00E94C800089582E04F
:1003300090E00E94C8000895882339F0813051F47C
:1003400087E090E00E94A600089587E090E00E9478
:10035000C800089587E090E00E94C80008958823AF
:1003600039F0813051F483E090E00E94B1000895AB
:1003700083E090E00E94D400089583E090E00E9422
:10038000D40008950E9479010E9402020E946C002C
:100390000E9436000E943C000E9442000E944800D9
:1003A000892B51F081E00E94890181E00E940802BE
:1003B00080E00E94720003C080E00E9489010E94D8
:1003C0005400892B51F081E00E949C0180E00E9442
:1003D000080281E00E94720003C080E00E949C013C
:1003E0000E946000892B51F081E00E94AF0181E002
:1003F0000E94080280E00E947200D0CF80E00E943C
:10040000AF01CCCF62E070E081E00E94E00008958F
:10041000882339F0813051F482E090E00E949B0003
:10042000089582E090E00E94BC00089582E090E090
:0A0430000E94BC000895F894FFCF6D
:00000001FF
