S01800003774682050726F6A65637420554152542E73726563A6
S11300000C942A000C9434000C9434000C943400A6
S11300100C9434000C9434000C9434000C9434008C
S11300200C9434000C9434000C9434000C9434007C
S11300300C9434000C949D000C9434000C94340003
S11300400C9434000C9434000C9434000C9434005C
S11300500C94340011241FBECFE5D8E0DEBFCDBF21
S11300600E94CC000C9444030C94000095B321E04E
S113007030E002C0220F331F8A95E2F7292B25BBFB
S1130080089595B321E030E002C0220F331F8A9512
S1130090E2F72095292325BB0895882319F08130A0
S11300A069F017C024B381E090E002C0880F991F63
S11300B06A95E2F78095822384BB089524B381E096
S11300C090E002C0880F991F6A95E2F7822B84BBE7
S11300D0089524B381E090E002C0880F991F6A95C7
S11300E0E2F78095822384BB0895882319F0813038
S11300F069F017C021B381E090E002C0880F991F16
S11301006A95E2F78095822381BB089521B381E04B
S113011090E002C0880F991F6A95E2F7822B81BB99
S1130120089521B381E090E002C0880F991F6A9579
S1130130E2F78095822381BB08951F920F920FB638
S11301400F9211242F933F934F935F936F937F9359
S11301508F939F93AF93BF93EF93FF938CB18134AD
S113016019F0823429F007C081E00E94FF0003C027
S113017080E00E94FF00FF91EF91BF91AF919F91AA
S11301808F917F916F915F914F913F912F910F903C
S11301900FBE0F901F90189580E895E20E943001E1
S11301A00E94EF0080E00E94FF00789481E40E94A6
S11301B037012FEF87EA91E6215080409040E1F724
S11301C000C0000082E40E9437012FEF87EA91E625
S11301D0215080409040E1F700C00000E7CF62E08A
S11301E070E081E00E944D0067E070E081E00E94D1
S11301F04D0063E070E081E00E947500089588235B
S113020039F0813051F482E090E00E943600089584
S113021082E090E00E944100089582E090E00E9414
S113022041000895BC0180E090E00E94490220E072
S113023030E040E851E40E94D7029B01AC0160E049
S113024074E284E79BE40E94A80120E030E040E8E7
S11302505FE30E943B010E941A0269B970BD0895D0
S11302600E9412018AB188618AB9579A08955D9BE8
S1130270FECF8CB908955058BB27AA270E9453017A
S11302800C949D020E948F0238F00E94960220F086
S113029039F49F3F19F426F40C948C020EF4E09583
S11302A0E7FB0C948602E92F0E94AE0258F3BA17BA
S11302B0620773078407950720F079F4A6F50C9478
S11302C0D0020EF4E0950B2EBA2FA02D0B01B9012C
S11302D090010C01CA01A0011124FF27591B99F0B8
S11302E0593F50F4503E68F11A16F040A22F232FC4
S11302F0342F4427585FF3CF469537952795A79514
S1130300F0405395C9F77EF41F16BA0B620B730BBA
S1130310840BBAF09150A1F0FF0FBB1F661F771F2B
S1130320881FC2F70EC0BA0F621F731F841F48F4E0
S1130330879577956795B795F7959E3F08F0B0CF69
S11303409395880F08F09927EE0F97958795089550
S11303500E94BC010C949D020E94960258F00E94D7
S11303608F0240F029F45F3F29F00C94860251116A
S11303700C94D1020C948C020E94AE0268F399236F
S1130380B1F3552391F3951B550BBB27AA2762178D
S11303907307840738F09F5F5F4F220F331F441F9A
S11303A0AA1FA9F335D00E2E3AF0E0E832D09150CE
S11303B05040E695001CCAF72BD0FE2F29D0660FBB
S11303C0771F881FBB1F261737074807AB07B0E8FE
S11303D009F0BB0B802DBF01FF2793585F4F3AF004
S11303E09E3F510578F00C9486020C94D1025F3F35
S11303F0E4F3983ED4F3869577956795B795F7958A
S11304009F5FC9F7880F911D9695879597F9089571
S1130410E1E0660F771F881FBB1F6217730784070D
S1130420BA0720F0621B730B840BBA0BEE1F88F71C
S1130430E09508950E94B60288F09F5798F0B92F6E
S11304409927B751B0F0E1F0660F771F881F991F05
S11304501AF0BA95C9F714C0B13091F00E94D002D5
S1130460B1E008950C94D002672F782F8827B85FE5
S113047039F0B93FCCF3869577956795B395D9F75D
S11304803EF490958095709561957F4F8F4F9F4F67
S11304900895E89409C097FB3EF490958095709573
S11304A061957F4F8F4F9F4F9923A9F0F92F96E9BC
S11304B0BB279395F695879577956795B795F11131
S11304C0F8CFFAF4BB0F11F460FF1BC06F5F7F4FCE
S11304D08F4F9F4F16C0882311F096E911C07723E0
S11304E021F09EE8872F762F05C0662371F096E8E9
S11304F0862F70E060E02AF09A95660F771F881FB8
S1130500DAF7880F9695879597F9089597F99F6775
S113051080E870E060E008959FEF80EC0895002487
S11305200A941616170618060906089500240A9454
S113053012161306140605060895092E0394000CDA
S113054011F4882352F0BB0F40F4BF2B11F460FF69
S113055004C06F5F7F4F8F4F9F4F089557FD905892
S1130560440F551F59F05F3F71F04795880F97FB73
S1130570991F61F09F3F79F087950895121613062D
S11305801406551FF2CF4695F1DF08C0161617065C
S11305901806991FF1CF8695710561050894089591
S11305A0E894BB2766277727CB0197F908950E9423
S11305B0EA020C949D020E948F0238F00E94960277
S11305C020F0952311F00C9486020C948C021124D3
S11305D00C94D1020E94AE0270F3959FC1F3950F63
S11305E050E0551F629FF001729FBB27F00DB11DB3
S11305F0639FAA27F00DB11DAA1F649F6627B00D43
S1130600A11D661F829F2227B00DA11D621F739F2B
S1130610B00DA11D621F839FA00D611D221F749F39
S11306203327A00D611D231F849F600D211D822F80
S1130630762F6A2F11249F5750409AF0F1F08823A7
S11306404AF0EE0FFF1FBB1F661F771F881F9150D4
S11306505040A9F79E3F510580F00C9486020C94FB
S1130660D1025F3FE4F3983ED4F38695779567957E
S1130670B795F795E7959F5FC1F7FE2B880F911DFE
S10F06809695879597F90895F894FFCF9C
S9030000FC
