:100000000C942A000C943F000C943F000C943F0089
:100010000C943F000C943F000C943F000C943F0064
:100020000C943F000C943F000C943F000C943F0054
:100030000C943F000C948A010C943F000C943F00F8
:100040000C943F000C943F000C943F000C943F0034
:100050000C943F0011241FBECFE5D8E0DEBFCDBF1A
:1000600010E0A0E6B0E0E4ECF4E002C005900D92F0
:10007000A039B107D9F70E94D3010C9460020C9407
:10008000000026B330E0A90102C0559547958A9536
:10009000E2F7CA018170089520B330E0A90102C0DF
:1000A000559547958A95E2F7CA018170089598B3EE
:1000B00021E030E002C0220F331F8A95E2F7292B9E
:1000C00028BB089598B321E030E002C0220F331F0F
:1000D0008A95E2F72095292328BB089595B321E05E
:1000E00030E002C0220F331F8A95E2F7292725BB93
:1000F000089592B321E030E002C0220F331F8A95A9
:10010000E2F7292722BB0895882319F0813069F08E
:1001100017C027B381E090E002C0880F991F6A954D
:10012000E2F78095822387BB089527B381E090E0B2
:1001300002C0880F991F6A95E2F7822B87BB08954A
:1001400027B381E090E002C0880F991F6A95E2F71B
:100150008095822387BB0895882319F0813069F048
:1001600017C024B381E090E002C0880F991F6A9500
:10017000E2F78095822384BB089524B381E090E068
:1001800002C0880F991F6A95E2F7822B84BB0895FD
:1001900024B381E090E002C0880F991F6A95E2F7CE
:1001A0008095822384BB0895882319F0813069F0FB
:1001B00017C021B381E090E002C0880F991F6A95B3
:1001C000E2F78095822381BB089521B381E090E01E
:1001D00002C0880F991F6A95E2F7822B81BB0895B0
:1001E00021B381E090E002C0880F991F6A95E2F781
:1001F0008095822381BB089583E090E00E945700A0
:100200008FE39CE90197F1F700C0000083E090E0E4
:100210000E9462008FE19EE40197F1F700C00000A8
:100220000895CF93C82F8BB38F709C2F907F892B0D
:100230008BBB81E090E00E9462000E94FC008FE98D
:100240009FE00197F1F700C000008BB3282F2F70BB
:1002500030E1C39FC0011124822B8BBB81E090E071
:100260000E9462000E94FC00CF91089581E00E94EC
:1002700011018FE99FE00197F1F700C00000089598
:100280008AB3806F8ABB87B38E6087BBC29882E0D7
:100290000E9411018CE00E9411018FE39CE90197FB
:1002A000F1F700C000000E9436010895CF93C82FD7
:1002B0008BB38F709C2F907F892B8BBB81E090E05C
:1002C0000E9457000E94FC008FE99FE00197F1F720
:1002D00000C000008BB3282F2F7030E1C39FC001F6
:1002E0001124822B8BBB81E090E00E9457000E947A
:1002F000FC00CF910895CF93DF93EC018881882390
:1003000031F021960E94560189918111FBCFDF9136
:10031000CF9108951F920F920FB60F9211242F9331
:100320003F934F935F936F937F938F939F93AF937D
:10033000BF93EF93FF938CB1823479F08334C1F093
:10034000813401F582E090E00E946E000E94360147
:1003500080E690E00E947B0115C087E090E00E945B
:100360006E000E94360180E790E00E947B010AC087
:1003700083E090E00E9479000E94360180E890E0DE
:100380000E947B01FF91EF91BF91AF919F918F915F
:100390007F916F915F914F913F912F910F900FBE81
:1003A0000F901F90189560E070E080E00E9484003C
:1003B0000E9425020E942B0262E070E081E00E9410
:1003C000AC0067E070E081E00E94AC0063E070E0A8
:1003D00081E00E94D4000E94400180E895E20E94E2
:1003E000550278940E943102892B69F081E40E94C1
:1003F0005C022FEF89E698E1215080409040E1F7C0
:1004000000C00000EFCF0E943D02892B69F082E41A
:100410000E945C022FEF89E698E1215080409040D5
:10042000E1F700C00000DECF0E944902892BD1F223
:1004300083E40E945C022FEF89E698E1215080401E
:100440009040E1F700C00000CDCF66E070E080E0B2
:100450000E94D400089562E070E080E00E94D40021
:10046000089580E090E00E94410021E030E0811199
:1004700002C020E030E0C901089586E090E00E94CB
:100480004C0021E030E0811102C020E030E0C901E1
:10049000089582E090E00E944C0021E030E081115C
:1004A00002C020E030E0C901089586EC80BD8AB129
:1004B00088618AB9579A08955D9BFECF8CB90895DB
:0404C000F894FFCFDE
:1004C40053772030206973207072657373656400FC
:1004D40053772031206973207072657373656400EB
:1004E40053772032206973207072657373656400DA
:00000001FF
