:100000000C9472000C947C000C947C000C947C008A
:100010000C947C000C947C000C947C000C947C0070
:100020000C947C000C947C000C947C000C947C0060
:100030000C9456010C94FC000C947C000C947C00F5
:100040000C947C000C947C000C947C000C947C0040
:100050000C947C0025012C0133013A014001400140
:100060004001400140014001400140014001400188
:100070004001400140014001400140014001400178
:100080004001400140014001400140014001400168
:100090004001400125012C0133013A01740178012E
:1000A0007C0180018301830183018301830183013A
:1000B0008301830183018301830183018301830120
:1000C0008301830183018301830183018301830110
:1000D000830183018301830183018301740178011A
:1000E0007C01800111241FBECFE5D8E0DEBFCDBF6B
:1000F0000E9494010C94A3040C94000095B321E099
:1001000030E002C0220F331F8A95E2F7292B25BB6E
:10011000089592B321E030E002C0220F331F8A9588
:10012000E2F7292B22BB089595B321E030E002C00D
:10013000220F331F8A95E2F72095292325BB0895C6
:1001400092B321E030E002C0220F331F8A95E2F71C
:100150002095292322BB0895882319F0813069F066
:1001600017C024B381E090E002C0880F991F6A9500
:10017000E2F78095822384BB089524B381E090E068
:1001800002C0880F991F6A95E2F7822B84BB0895FD
:1001900024B381E090E002C0880F991F6A95E2F7CE
:1001A0008095822384BB0895882319F0813069F0FB
:1001B00017C021B381E090E002C0880F991F6A95B3
:1001C000E2F78095822381BB089521B381E090E01E
:1001D00002C0880F991F6A95E2F7822B81BB0895B0
:1001E00021B381E090E002C0880F991F6A95E2F781
:1001F0008095822381BB08951F920F920FB60F92B4
:1002000011242F933F934F935F936F937F938F931B
:100210009F93AF93BF93CF93EF93FF93CCB181E0C4
:1002200090E00E9435028FE39CE90197F1F700C04E
:1002300000008C2F90E0FC01E154F109E432F1055B
:10024000F8F4E65DFF4F0C949D0481E00E94D90113
:1002500081E40E94620214C080E00E94D90182E41D
:100260000E9462020DC081E00E94D90183E40E94D5
:10027000620206C080E00E94D90184E40E9462020A
:1002800080E090E00E943502FF91EF91CF91BF9105
:10029000AF919F918F917F916F915F914F913F911E
:1002A0002F910F900FBE0F901F9018951F920F92D5
:1002B0000FB60F9211242F933F934F935F936F9339
:1002C0007F938F939F93AF93BF93EF93FF93EFB180
:1002D0008E2F90E0FC01E154F109E432F10598F42D
:1002E000E25BFF4F0C949D0481E00E94B3010BC0C0
:1002F00080E00E94B30107C081E00E94C60103C0F4
:1003000080E00E94C601FF91EF91BF91AF919F9154
:100310008F917F916F915F914F913F912F910F90AE
:100320000FBE0F901F90189562E070E081E00E9470
:10033000AC0067E070E081E00E94AC0063E070E038
:1003400081E00E94D40080E895E20E948B0263E085
:1003500070E080E090E00E94EC010E9466020E9442
:100360002D027894FFCF882339F0813051F482E058
:1003700090E00E947E00089582E090E00E94940048
:10038000089582E090E00E9494000895882339F057
:10039000813051F487E090E00E947E00089587E06C
:1003A00090E00E949400089587E090E00E949400FD
:1003B0000895882339F0813051F483E090E00E9461
:1003C0008900089583E090E00E94A000089583E0F2
:1003D00090E00E94A00008959C019DB19C7F9DB972
:1003E0009EB19E7F9EB96430710524F48DB1682B57
:1003F0006DB90DC08DB1962F9370892B8DB98EB1CB
:1004000075956795759567956170682B6EB921151F
:10041000310599F021303105F9F48DB180618DB944
:1004200087B3806287BB87B38F7B87BB87B38061CD
:1004300087BB87B3806887BB08958DB18F7E8DB9E8
:1004400087B38F7D87BB87B3806487BB87B38F7E7D
:1004500087BB87B38F7787BB08958DB180648DB9D3
:1004600008958DB18F7B8DB90895CF93DF93EC0103
:100470000E943102209791F02197F9F48DB18061AB
:100480008DB987B3806287BB87B38F7B87BB87B308
:10049000806187BB87B3806887BB0FC08DB18F7EBB
:1004A0008DB987B38F7D87BB87B3806487BB87B3E4
:1004B0008F7E87BB87B38F7787BB0E942D02DF912A
:1004C000CF9108958FB9779BFECF08958DB1806845
:1004D0008DB90895BC0180E090E00E94A20320E065
:1004E00030E040E851E40E9430049B01AC0160E040
:1004F00074E284E79BE40E94010320E030E040E8DE
:100500005FE30E9494020E94730369B980B58F77FC
:1005100080BD70BD08950E946A028AB188618AB95F
:100520008AB180688AB908955058BB27AA270E94CB
:10053000AC020C94F6030E94E80338F00E94EF032B
:1005400020F039F49F3F19F426F40C94E5030EF4DF
:10055000E095E7FB0C94DF03E92F0E94070458F3B2
:10056000BA17620773078407950720F079F4A6F598
:100570000C9429040EF4E0950B2EBA2FA02D0B013C
:10058000B90190010C01CA01A0011124FF27591BD8
:1005900099F0593F50F4503E68F11A16F040A22FDE
:1005A000232F342F4427585FF3CF4695379527954F
:1005B000A795F0405395C9F77EF41F16BA0B620B4E
:1005C000730B840BBAF09150A1F0FF0FBB1F661F95
:1005D000771F881FC2F70EC0BA0F621F731F841FD8
:1005E00048F4879577956795B795F7959E3F08F0FE
:1005F000B0CF9395880F08F09927EE0F97958795C0
:1006000008950E9415030C94F6030E94EF0358F01E
:100610000E94E80340F029F45F3F29F00C94DF03C7
:1006200051110C942A040C94E5030E94070468F30A
:100630009923B1F3552391F3951B550BBB27AA279B
:1006400062177307840738F09F5F5F4F220F331FD5
:10065000441FAA1FA9F335D00E2E3AF0E0E832D09D
:1006600091505040E695001CCAF72BD0FE2F29D0A0
:10067000660F771F881FBB1F261737074807AB0772
:10068000B0E809F0BB0B802DBF01FF2793585F4FE7
:100690003AF09E3F510578F00C94DF030C942A0445
:1006A0005F3FE4F3983ED4F3869577956795B795C9
:1006B000F7959F5FC9F7880F911D9695879597F9D4
:1006C0000895E1E0660F771F881FBB1F621773074D
:1006D0008407BA0720F0621B730B840BBA0BEE1F62
:1006E00088F7E09508950E940F0488F09F5798F0CE
:1006F000B92F9927B751B0F0E1F0660F771F881F27
:10070000991F1AF0BA95C9F714C0B13091F00E9440
:100710002904B1E008950C942904672F782F8827C5
:10072000B85F39F0B93FCCF3869577956795B39567
:10073000D9F73EF490958095709561957F4F8F4FD6
:100740009F4F0895E89409C097FB3EF490958095DB
:10075000709561957F4F8F4F9F4F9923A9F0F92F87
:1007600096E9BB279395F695879577956795B79505
:10077000F111F8CFFAF4BB0F11F460FF1BC06F5FEB
:100780007F4F8F4F9F4F16C0882311F096E911C0FD
:10079000772321F09EE8872F762F05C0662371F01E
:1007A00096E8862F70E060E02AF09A95660F771F32
:1007B000881FDAF7880F9695879597F9089597F926
:1007C0009F6780E870E060E008959FEF80EC0895F7
:1007D00000240A9416161706180609060895002420
:1007E0000A9412161306140605060895092E03949A
:1007F000000C11F4882352F0BB0F40F4BF2B11F40E
:1008000060FF04C06F5F7F4F8F4F9F4F089557FD6C
:100810009058440F551F59F05F3F71F04795880F6E
:1008200097FB991F61F09F3F79F087950895121605
:1008300013061406551FF2CF4695F1DF08C01616B1
:1008400017061806991FF1CF869571056105089462
:100850000895E894BB2766277727CB0197F9089579
:100860000E9443040C94F6030E94E80338F00E94AF
:10087000EF0320F0952311F00C94DF030C94E503B3
:1008800011240C942A040E94070470F3959FC1F36D
:10089000950F50E0551F629FF001729FBB27F00D2E
:1008A000B11D639FAA27F00DB11DAA1F649F662783
:1008B000B00DA11D661F829F2227B00DA11D621FD2
:1008C000739FB00DA11D621F839FA00D611D221F8C
:1008D000749F3327A00D611D231F849F600D211D70
:1008E000822F762F6A2F11249F5750409AF0F1F0F3
:1008F00088234AF0EE0FFF1FBB1F661F771F881F5C
:1009000091505040A9F79E3F510580F00C94DF03B1
:100910000C942A045F3FE4F3983ED4F386957795D0
:100920006795B795F795E7959F5FC1F7FE2B880F01
:10093000911D9695879597F90895EE0FFF1F0590E5
:0A094000F491E02D0994F894FFCF24
:00000001FF
