:100000000C942A000C9434000C9434000C943400AA
:100010000C9434000C9434000C9434000C94340090
:100020000C9434000C9434000C9434000C94340080
:100030000C9434000C9434000C9434000C94340070
:100040000C9434000C9434000C9434000C94340060
:100050000C94340011241FBECFE5D8E0DEBFCDBF25
:100060000E94F8000C9458010C94000098B321E011
:1000700030E002C0220F331F8A95E2F7292B28BBFC
:10008000089598B321E030E002C0220F331F8A9513
:10009000E2F72095292328BB089583E090E00E9491
:1000A00036008FE39CE90197F1F700C0000083E080
:1000B00090E00E9441008FE19EE40197F1F700C0BB
:1000C00000000895CF93C82F8BB38F709C2F907F23
:1000D000892B8BBB81E090E00E9441000E944D0083
:1000E0008FE99FE00197F1F700C000008BB3282F44
:1000F0002F7030E1C39FC0011124822B8BBB81E0A4
:1001000090E00E9441000E944D00CF91089581E04F
:100110000E9462008FE99FE00197F1F700C00000A4
:1001200008958AB3806F8ABB87B38E6087BBC298FD
:1001300082E00E9462008CE00E9462008FE39CE9F2
:100140000197F1F700C000000E9487000895CF9347
:10015000C82F8BB38F709C2F907F892B8BBB81E036
:1001600090E00E9436000E944D008FE99FE00197C9
:10017000F1F700C000008BB3282F2F7030E1C39F30
:10018000C0011124822B8BBB81E090E00E943600DD
:100190000E944D00CF910895CF93DF93EC018881A9
:1001A000882331F021960E94A70089918111FBCF0D
:1001B000DF91CF910895CF93DF93CDB7DEB76497EA
:1001C0000FB6F894DEBF0FBECDBFAB01BE016F5FAF
:1001D0007F4F0E941801CE0101960E94CC006496C8
:1001E0000FB6F894DEBF0FBECDBFDF91CF9108955B
:1001F0000E94910081E40E94A7002FEF87EA91E618
:10020000215080409040E1F700C000000E9487002C
:100210006AE070E087EC9FEC0E94DB002FEF87EA3A
:1002200091E6215080409040E1F700C00000FFCFF0
:100230004532510520F4423010F00C942301FB01AB
:100240001082CB010895BB274A3031F4992322F460
:10025000BDE2909581959F4F0C942F01BB27FB0128
:100260005527AA27880F991FAA1FA41710F0A41BAF
:1002700083955051B9F7A05DAA3308F0A95DA19309
:10028000009779F7B111B1931192CB010C94480109
:10029000DC01FC01672F71917723E1F7329704C0ED
:1002A0007C916D9370836291AE17BF07C8F3089578
:0402B000F894FFCFF0
:00000001FF
