:100000000C942A000C9434000C9459000C94340085
:100010000C9434000C9434000C9434000C94340090
:100020000C9434000C9434000C9434000C94340080
:100030000C9434000C9434000C9434000C94340070
:100040000C9434000C9434000C9434000C94340060
:100050000C94340011241FBECFE5D8E0DEBFCDBF25
:100060000E9468000C9476000C94000024B7880F5E
:10007000991F880F991F822B84BF8BB780688BBF15
:1000800008959BB721E030E002C0220F331F8A950C
:10009000E2F7209529232BBF0895882319F081309A
:1000A00019F005C01ABA08958FEF8ABB08951ABADD
:1000B00008951F920F920FB60F9211248F938BB356
:1000C00080958BBB8F910F900FBE0F901F9018954E
:1000D00081E00E944D001BBA87E090E00E94410041
:1000E00083E090E00E9436007894FFCFF894FFCF31
:00000001FF
